:100000000C94AD010C94CA010C94CA010C94CA0161
:100010000C94CA010C94CA010C94CA010C94CA0134
:100020000C94CA010C94CA010C94BB200C948E2130
:100030000C946A1B0C94CA010C94CA010C94CA015A
:100040000C94CA010C94CA010C94CA010C94CA0104
:100050000C94CA010C94E21B0C94CA010C94CA01C2
:100060000C94CA010C94CA010C94CA010C94CA01E4
:100070000C94CA010C94CA010C94CA010C94CA01D4
:100080000C94CA010C94CA010C94CA010C94CA01C4
:100090000C94CA010C94CA010C94CA010C94CA01B4
:1000A0000C94CA010C94CA010C94CA015F00600050
:1000B000610056005C005D005E00570059005A0068
:1000C0005B005400215262006300580020782378BE
:1000D000257827782178247826782878010001006F
:1000E00001000100010001000100007C010001008D
:1000F00001000100010001000100010001000100F8
:1001000001000100010001000100010001000100E7
:1001100001000100010001000100010001000100D7
:1001200001000100010001000100010000000000C9
:10013000000000002A2B2800000000000000000042
:100140000000000000000029000000002C1E3420E8
:10015000212224342627252E362D3738271E1F200E
:100160002122232425263333362E37381F04050653
:100170000708090A0B0C0D0E0F1011121314151697
:100180001718191A1B1C1D2F3130232D3504050695
:100190000708090A0B0C0D0E0F1011121314151677
:1001A0001718191A1B1C1D2F3130354C0000000088
:1001B000000000000000000000000000000000003F
:1001C000000000000000000000000000000000002F
:1001D0007E0F00D4FFFFFFC70000007816036D00FC
:1001E0006100630072006F00700061006400310004
:1001F0003600000012037300760061006100720097
:1002000069006300680000000403090409025B0040
:10021000030100A0FA090400000103010100092103
:1002200011010001224400070581030800010904AF
:100230000100020300000009211101000122220037
:1002400007058203200001070503032000010904BC
:1002500002000103000000092111010001227B00BE
:100260000705840320000112010002000000087548
:100270006F17550100010200010660FF0961A1012D
:100280000962150026FF0095207508810209631593
:100290000026FF00952075089102C005010902A102
:1002A0000185020901A10005091901290815002588
:1002B0000195087501810205010930093115812573
:1002C0007F95027508810609381581257F9501758E
:1002D000088106050C0A38021581257F95017508ED
:1002E0008106C0C005010980A101850319012AB753
:1002F00000150126B700950175108100C0050C0995
:1003000001A101850419012AA002150126A0029568
:100310000175108100C005010906A101050719E05A
:1003200029E71500250195087501810295017508D9
:1003300081010507190029FF150026FF00950675A4
:100340000881000508190129051500250195057585
:10035000019102950175039101C011241FBECFEFD9
:10036000DAE0DEBFCDBF11E0A0E0B1E0EEEEF8E4F0
:1003700002C005900D92AE39B107D9F722E0AEE97F
:10038000B1E001C01D92A135B207E1F70E946C11E6
:100390000C9410240C940000962F942B982B9430DE
:1003A00098F494E0899FF0011124E60FF11DEE0FFF
:1003B000FF1FEE0FFF1FE40FF11DEE0FFF1FE455AF
:1003C000FF4F85919491089581E090E0089581E038
:1003D000089581E008950E94E701089581E008955D
:1003E00081E0089581E008950E94F2010895089542
:1003F00008950E94F701089508950895A6E0B0E0D9
:10040000E4E0F2E00C946C2349835A839E8330919C
:10041000A50189819A8131111AC03E81311599F067
:10042000211589F00E942D08182F682F89819A8143
:100430000E940A0869817A81812F0E94180F2696EE
:10044000E3E00C9488230E941B08182FF3CF0E942E
:100450002D0869817A81F1CFFC01262F40815181DD
:1004600062817381848195810E94FE010895CF93FA
:10047000DF93D82FC92F61E00E942C026D2F7C2FB3
:100480000E94E901811549F061E08D2F9C2F0E94A7
:100490002C026D2F7C2F0E94EB01DF91CF910895EC
:1004A0000F931F93CF93DF93D82FC92F60E00E9443
:1004B0002C028C016D2F7C2F0E94F8016D2F7C2F58
:1004C000C8010E94F901DF91CF911F910F9108950A
:1004D00091E001C0990F8A95EAF7892F0E944C0795
:1004E0000895CF93C82F81E00C2E01C0880F0A9485
:1004F000EAF70E94780C8C2F0E946802CF91089531
:1005000081E0089581E008950E9480020895CF93CC
:10051000C82F0E94F8068C2F0E9482028C2F0E9406
:1005200084022FEF84E39CE0215080409040E1F76B
:1005300000C00000CF91089581E00E9487020E94D0
:10054000061C089580E00E9487020E94171C0895EF
:100550000F931F93CF93DF938C0161E00E942C02D5
:10056000EC01B8010E94F001811509F450C0B801F6
:10057000CE010E94F401811509F449C0B801CE01F1
:100580000E94D718811509F442C0B801CE010E941B
:10059000F1178115E1F1B801CE010E9426138115F2
:1005A000B1F1B801CE010E94FB12811581F1B801B1
:1005B000CE010E943318811551F1B801CE010E947D
:1005C0001B10811521F1F8018581811581F0CA3553
:1005D000FCE7DF0739F178F4C130ECE7DE07F9F02A
:1005E000C330FCE7DF07C9F0C115DC4771F0C80173
:1005F0000E94EE010DC0CB35ECE7DE07B1F0CC3543
:10060000DC47A9F70E944A0CF2CF0E949C0280E0CE
:10061000DF91CF911F910F9108950E945B0C0E9472
:10062000A202F5CF0E94530CE2CF0E94570CDFCFFD
:100630000E94FC010E943D1B0E943C0308950E9401
:1006400040030E94FD010E94421B089581E008952D
:100650000895CF93DF93D82F0E942603C82F8115CA
:1006600019F08D2F0E9428038C2FDF91CF910895D0
:1006700008950E942903089580E00E943903089597
:100680000E94C5190E9439030895CF930E94C5198D
:10069000C82F8091A0018C1779F0C093A0010E940F
:1006A000D61B6093A1017093A2018093A301909344
:1006B000A4018C2F0E943903CF910895ADE0B0E0E2
:1006C000E4E6F3E00C946D23488759876A877B87BB
:1006D0008C879D8791110E94860B1F8286E0FE0108
:1006E0003896DE01119601900D928A95E1F78D8181
:1006F00081110DC029813A814B815C816D817E81A0
:100700008F810E94D00A2D96E2E00C948923CE01BD
:1007100001960E9437028111EDCFF5CFFC01848153
:10072000813021F4808191810E94560808956115DD
:1007300029F00E9490140E94511508950E94D91426
:10074000FACFCF93C82F8115C9F08238C9F40E941F
:10075000D21981FD13C089E30E948B1A0E94F70B06
:100760002FEF37EE83E0215030408040E1F700C0AA
:10077000000089E30E94931A0E94F70BCF9108951D
:100780008338A1F40E94D21980FDF8CF83E50E943E
:100790008B1A0E94F70B9FEF21EE34E0915020401E
:1007A0003040E1F700C0000083E5E4CF8438A1F4D5
:1007B0000E94D21982FDE2CF87E40E948B1A0E9428
:1007C000F70B8FEF91EE24E0815090402040E1F74D
:1007D00000C0000087E4CECF8CEF8C0F813A70F41C
:1007E0008C2F0E944F1A811529F08C2F0E94931A8A
:1007F0000E94F70B8C2F0E948B1ABECF80E28C0FC9
:10080000883048F4C77081E001C0880FCA95EAF7C4
:100810000E94670BB1CF8BE58C0F833038F42C2FFF
:100820002452330BC9010E94EF19A8CFE8E5EC0F61
:10083000EB3150F4F0E0EE0FFF1FE55EFE4F8081DC
:1008400091810E94151A9ACF83E38C0F833108F0AF
:1008500095CF61E08C2F0E94970390CF811509F40A
:1008600056C0823879F40E94D21981FF50C089E3C2
:100870000E948B1A0E94F70B89E30E94931A0E9430
:10088000F70B0895833859F40E94D21980FF3FC0B6
:1008900083E50E948B1A0E94F70B83E5EECF843824
:1008A00059F40E94D21982FF32C087E40E948B1A49
:1008B0000E94F70B87E4E1CF9CEF980F913AE8F2A2
:1008C00090E2980F983050F4877091E001C0990F32
:1008D0008A95EAF7892F0E946D0BD1CF9BE5980F7F
:1008E000933028F480E090E00E94EF19089598E595
:1008F000980F9B3128F480E090E00E94151A08952B
:1009000093E3980F933118F460E00E9497030895E1
:100910000F931F93CF93C82F8B010E94A103011542
:10092000110539F48C2F0E942E04CF911F910F9145
:1009300008958FE99FE00197F1F700C00000015092
:100940001109EDCF60E570E0893311F060E070E0EF
:100950000E9488040895811521F00E94670B0E946F
:10096000F70B0895811521F00E946D0B0E94F70B83
:100970000895A0E0B0E0EFEBF4E00C9467236C0185
:10098000D62FC72FFC011581068102950F700E949A
:100990005C0BE82E8115F9F0E12E1115E1F08C2F9A
:1009A000807F803461F080E28D0F8830F0F08C2FF2
:1009B000807E803221F4D230C0F00115B1F08091F8
:1009C000370282FF12C082E00E941D0C0E945C0B65
:1009D00091E0E82EE926EC2FE295EF70C03CB0F5EF
:1009E000F0E0EE5EFB4D0C945023E12CF4CF0C2F85
:1009F0000F70C03110F00295007F111599F00115AC
:100A000059F080E28D0F883010F0D11107C0802F8F
:100A10000E94670B0E94F70B8D2F4EC0802F0E9403
:100A2000780BF8CF8D2F0E942E04011579F080E20B
:100A30008D0F883010F0D11104C0802F0E946D0BF3
:100A400003C0802F0E947E0B0E94F70BE11409F473
:100A5000C6C00E94580B80FDC2C0F60115820E94DC
:100A6000520B0E947907C6010E94BF060E94520BDA
:100A70000E948507B4C0FC2FFF70FF2EC07FC032DC
:100A800019F0F29480EFF822D11541F0D130C9F17C
:100A9000111509F443C00115E9F0BECF809137026A
:100AA00082FD14C0111559F0F11429F08F2D0E9408
:100AB000670B0E94F70B80E00E94A103C7CF80E084
:100AC0000E942E04F11411F28F2DB8CF111569F088
:100AD000011104C08F2D0E94AB04B8CF013009F082
:100AE000B5CF8F2D0E949E0BB1CF0111AFCF8F2DAF
:100AF0000E94B2048F2D0E94AA0B8F2D0E948D0B95
:100B0000A5CF111521F0063008F0A0CFE3CF0530B6
:100B100008F09CCF8F2D0E94B20498CF0115D1F31D
:100B2000D93349F42FEF87EE93E021508040904075
:100B3000E1F700C000008D2F0E942E0487CF8C2F7C
:100B4000869586958370811569F0813009F07ECF96
:100B50008D2F9C2F9370111102C080E090E00E94B5
:100B6000151A74CF8D2F9C2F9370111102C080E045
:100B700090E00E94EF196ACF612F8D2F0E9497039A
:100B800065CF8C2F8370811138C0111124C04D2F77
:100B9000429546954770440F440F8D2F8F70042E59
:100BA00001C0880F0A94EAF72D2F2071D4FF07C0E7
:100BB0002FE030E001C0220F4A95EAF72095C69554
:100BC000C695C370822BC23091F0C33099F0C1300A
:100BD00059F00E9455070E94C5190E943903CDB7EC
:100BE000DEB7E8E00C9483230E944F07F4CF0E9405
:100BF0005B07F1CF0E944C07EECF111539F1C0FF12
:100C0000EACF4D2F429546954770440F440F8D2FE4
:100C10008F70042E01C0880F0A94EAF72D2F2071DF
:100C2000D4FF07C02FE030E001C0220F4A95EAF759
:100C30002095C695C695C370822BC23069F0C3302B
:100C400071F0C13031F00E94A707C5CF823018F291
:100C5000D8CF0E94A107BFCF0E94AD07BCCF0E9492
:100C60006707B9CFCF70111539F08C2F0E94790723
:100C70008D2F0E94AB04AFCF8D2F0E94B2048C2F1A
:100C80000E948507A8CFD23F41F170F4D03FC9F050
:100C9000D13F91F0111509F446C0011509F440C087
:100CA0008D2F0E94A10397CFD33FF1F0D43F91F74E
:100CB0008091370282FD22C08C2F8F71111501F3B4
:100CC00010C0111541F0053008F085CF8C2F8F71C1
:100CD0000E94950780CF0630F7CF8C2F8F711111AE
:100CE000CFCF0E94790777CF111529F08C2F8F7104
:100CF0000E94700770CF0E946C076DCF111531F004
:100D000063E08C2F8F710E94FE0B65CF81E00E9403
:100D10001D0C023008F45FCF82E00E941D0C5BCFF7
:100D20008C2F8F71DECF011579F0D93349F4EFEFB5
:100D3000F7EE23E0E150F0402040E1F700C0000072
:100D40008D2F0E942E0447CF8C2F8F7199CF0F9338
:100D50001F93CF93DF93EC01688179818D810E948D
:100D600063088C010E94B3070E944B07B801CE01B3
:100D70000E94B904DF91CF911F910F910895CF93F5
:100D8000DF93EC018C81811599F0CE010E94A802BD
:100D9000811111C00E945C0B811551F08D8181156C
:100DA00039F08091370282FF03C082E00E941D0C5F
:100DB000DF91CF910895CE010E94A706CE010E9437
:100DC0005002F6CF80E090E00E94EF1980E090E0C2
:100DD0000E94151A0E94860B0E94F70B0E946E1546
:100DE0000E94511508950E949B1A0E94E2060895E0
:100DF0000E94750B0E94F3060895282F92959F700C
:100E0000963099F060F4925F9F70923030F4203FFA
:100E1000B1F038F481E0283E38F080E008959A5F20
:100E2000F3CF81E0243FC9F7089591E0813F09F0B5
:100E300090E081E0283E08F080E0892B089581E071
:100E40000895FC018481811539F0808191810E948F
:100E500056080E94FD06089580E00895A6E0B0E0DF
:100E6000E4E3F7E00C946D232696E2E00C948923EA
:100E7000A7E0B0E0EEE3F7E00C946D232796E2E004
:100E80000C94892308950E94420708950E94430705
:100E90008093AD01089508950E94460708959091AA
:100EA000AD01892B0E94460708959091AD018923D9
:100EB0000E94460708959091AD0189270E94460738
:100EC00008950E94420708950E94610708950E94B4
:100ED00064078093AC01089580E00E94670708953D
:100EE00091E001C0990F8A95EAF7892F0E94670760
:100EF000089521E030E001C0220F8A95EAF7809141
:100F0000AC01822B0E946707089521E030E0A9011F
:100F100002C0440F551F8A95E2F7CA01809590914F
:100F2000AC0189230E946707089521E030E001C0E9
:100F3000220F8A95EAF78091AC0182270E94670709
:100F400008959091AC01892B0E94670708959091B4
:100F5000AC0189230E94670708959091AC0189270D
:100F60000E946707089508959B01677091E001C092
:100F7000990F6A95EAF763E0369527956A95E1F748
:100F8000B901660F771F260F371FFA01E20FF31F13
:100F900040E050E0682F70E08191DF019B01042E5A
:100FA00002C0369527950A94E2F7217021952827EB
:100FB000292328272E934F5F5F4F4330510561F758
:100FC00008959C01A82FA77083E0369527958A95F0
:100FD000E1F7C901880F991F820F931FFB01E80FEA
:100FE000F91F40E050E080E0219130E00A2E02C07D
:100FF000369527950A94E2F721703327042E01C015
:10100000220F0A94EAF7822B4F5F5F4F433051055E
:1010100059F70895282F862F322F392B343050F46A
:1010200034E0939FB0011124620F711D46EA51E034
:101030000E94B4070895282F892F822B843058F4FA
:1010400034E0939FC001112466EA71E0820F911D84
:101050000E94E107089580E00895A0E0B0E0E3E396
:10106000F8E00C9468237C010091AC018091AD0103
:10107000082BC3E0D0E010E0C8010C2E02C095950B
:1010800087950A94E2F780FD09C02197A8F7D12C33
:101090008D2DCDB7DEB7E7E00C948423DC2EB701AD
:1010A0008C2F0E94240F019781F3F2CFCF93DF930F
:1010B000D82FC92F0E942D086D2F7C2F0E94240F3E
:1010C000DF91CF9108951F93CF93DF93162FD72FE2
:1010D0009091A501911541F0862F972F0E945608F7
:1010E000DF91CF911F910895811581F0862F972F61
:1010F0000E942D08C82F682F812F9D2F0E940A085B
:10110000612F7D2F8C2F0E94240FEACF862F972FDF
:101110000E941B08C82FF4CFE1E0F0E0DF0102C01D
:10112000AA0FBB1F6A95E2F7BD01DF0102C0AA0F3B
:10113000BB1F4A95E2F76A2B01C0EE0F2A95EAF72A
:10114000962F9823961302C08E2B0895E0958E2338
:101150000895242F462F682F8091AC010E948C089F
:101160000E94670708950F931F93CF93E091AE01FC
:10117000C7E08091AF018E1304C0CF911F910F91F2
:1011800008950E2F10E0CE9FF0011124E055FE4F80
:1011900020813181428153816481758186810E94E1
:1011A0003807F8013196E770E4CF2091E8013091DB
:1011B000E9014091EA015091EB016091EC017091DD
:1011C000ED018091EE010E94380708958091EE01B3
:1011D000803178F48091ED01811559F0E091AE01F4
:1011E0002091AF013091E9014091E80157E02E13C1
:1011F00001C008956E2F70E05E9FF0011124DF01A1
:10120000A055BE4F14968C911497811561F11196DB
:101210008C911197831327C08C91841324C0159649
:101220008C91159781111FC012968D919C91A09160
:10123000EA01B091EB018A1B9B0B883C910598F465
:101240008091EE018F7080618093EE01EA54FE4F31
:1012500080818F708061808388EE91E00E94BF065C
:101260000E94B3080895FB013196E770C0CFE0916A
:10127000AE019091AF0127E0E91302C080E008952C
:10128000AE2FB0E02E9FF0011124E055FE4F3181CA
:10129000361306C03081381303C03581341304C0BF
:1012A000FD013196E770E8CF81E008958F929F921B
:1012B000AF92BF92DF92EF92FF920F931F93CF9363
:1012C000DF93CDB7DEB72D970FB6F894DEBF0FBE14
:1012D000CDBF8C0186E0F801DE01189601900D92D9
:1012E0008A95E1F7F801F580848198EE892E91E0E6
:1012F000992E9091EC0191111BC0811509F4FFC04A
:10130000F11409F440C1C8010E942107811509F4B4
:101310003AC187E0F801D40101900D928A95E1F776
:10132000C4010E948E030E94E6080E94D508E7C00F
:10133000E080A280B380D090ED012091EA0130914D
:10134000EB01A501421B530BD11409F4DBC0483C4F
:10135000510508F0A6C0811509F4D1C09091E901AA
:1013600091808091EE01803108F06BC0991228C005
:101370009091E8019E1124C0F1105DC08F708061D2
:101380008093EE010E94D50888EE91E00E94BF068E
:101390008091EE01F8018683F12C8F2D2D960FB6EA
:1013A000F894DEBF0FBECDBFDF91CF911F910F919B
:1013B000FF90EF90DF90BF90AF909F908F90089537
:1013C000F11039C040E0692D8E2D0E94370940E0B0
:1013D000692D8E2D0E943709F82E8111DDCF888569
:1013E00099850E945608292F22952F70903450F429
:1013F0009F70223080F0911599F0F801968190311C
:1014000078F4CBCF2A5F2F70223078F0C8010E9489
:10141000BF06FD2CC2CF911519F0811509F4BDCF7F
:10142000805E883008F4B9CFF1CF803F08F4B5CFA3
:10143000815F8330F7CF8091EE0181608093EE0170
:10144000ABCF991207C09091E8019E1103C0F1142F
:1014500009F479C0C8010E942107811509F493C0DD
:10146000F11409F490C08091EE01803288F020914F
:10147000E8013091E9013A832983BC82AB829091E3
:10148000EC019D831E828F83CE0101960E94BF06D0
:1014900087E0F801A8EEB1E001900D928A95E1F79E
:1014A00042CF9091EE019031A0F4488559856A852C
:1014B0007B858C859D850E942E0788EE91E00E9499
:1014C000BF0687E0F40111928A95E9F70E94D508DA
:1014D00063CF8115A1F02091E90181812813BACF52
:1014E0008091E8018E11B6CFF110B4CF9683C80178
:1014F0000E94BF0687E0F40111928A95E9F7FF2464
:10150000F3944BCF483C510508F041C08115B9F325
:10151000F114C9F19091E901818198132AC0809159
:10152000E8018E1126C08091EE0180FD19C0803146
:10153000B8F08683807F803F39F08681982F907F36
:10154000905F8F70892B8683C8010E94BF0687E059
:10155000F801A8EEB1E001900D928A95E1F7E5CE91
:1015600087E0F801A8EEB1E001900D928A95E1F7CD
:10157000C6CFC8010E94210781118ACF8091EE0158
:1015800081608093EE01C8010E94BF06B8CF4885F4
:1015900059856A857B858C859D850E942E0791CF14
:1015A000AEE0B0E0E6EDFAE00C946C2328873987D2
:1015B0004A875B876C877D878E87CE0108960E945D
:1015C00056096C858115A9F0611541F0288539858A
:1015D0004A855B857D858E850E94380717E080915E
:1015E000AE019091AF0189133AC02E96E3E00C94BE
:1015F000882387E0FE013896DE01119601900D9256
:101600008A95E1F7611551F3A091AF018A2F90E01F
:101610000196877099272091AE012817190689F045
:1016200097E09A9FD0011124A055BE4FFE0131963C
:1016300001900D929A95E1F78093AF010E94B30853
:10164000CDCF0E94F8061092AF011092AE0187E054
:10165000E8EEF1E0DF011D928A95E9F7BFCF189F10
:10166000C001112480559E4F0E945609811509F42E
:10167000BCCFE091AE011E9FF0011124E055FE4F5A
:1016800020813181428153816481758186810E94EC
:1016900038078091AE0190E001968770992780937A
:1016A000AE019DCF8091F701869586958695089528
:1016B0008091F701877008959091F701977081E00C
:1016C000911101C080E008958091030208959091E6
:1016D0000302982B909303020895982F9095809180
:1016E0000302892380930302089510920302089550
:1016F00090910202982B909302020895982F909552
:1017000080910202892380930202089510920202BE
:10171000089508950E94890B08959091F801292F4A
:101720002823211531F0809589238093F8010E94A8
:101730008A0B089508950E949A0B08959091F901DB
:10174000292F2823281729F0982B9093F9010E941C
:101750009B0B08959091F901292F2823211531F031
:10176000809589238093F9010E949B0B08958091B5
:10177000F901811529F01092F90180E00E949B0B7C
:1017800008950F931F93CF93DF9300910001109161
:101790000101C091030280910202C82B8091F901DE
:1017A000811531F0C82B0E943B1A81110E94B70BA2
:1017B000F801C083C0910001D091010148E050E0E0
:1017C0006FEE71E0CE010E94A823892B59F088E0CA
:1017D000FE01AFEEB1E001900D928A95E1F7CE01E6
:1017E0000E94D519DF91CF911F910F9108950E940A
:1017F000C10B089508950E94FA0B0895962F209129
:10180000370222FF11C0682F660F660F660F692B23
:101810006093F7010E9479078091F701869586957C
:1018200086950E94FB0B08950E94790708951092F7
:10183000F70180E00E94FB0B08959091F7018095DD
:1018400089238093F701282F277021110DC0891754
:1018500059F09091370292FF07C08695869586953C
:101860000E9485070E94170C08959091370292FB01
:10187000222720F9281769F080FB92F9909337020C
:1018800080913602909137020E94830C82E00E9480
:101890001D0C089580913702002482FF0394802D4F
:1018A0000E94350C089581E00E94350C089580E077
:1018B0000E94350C08956FEF7FEF80E090E00E946A
:1018C000FA23089580E090E00E94C623853E9E4F53
:1018D00019F40E946E18089580E0089582E090E067
:1018E0000E94BE23089583E090E00E94BE230895E5
:1018F000682F83E090E00E94DC23089584E090E06C
:101900000E94C6230895BC0184E090E00E94FA235F
:101910000895AB01BC018FE090E00E94EE23089592
:10192000AB01BC0183E190E00E94EE23089560E0EA
:1019300070E0CB010E94900C089560E070E0CB0154
:101940000E94890C0E94970C0895A8E0B0E0EBEA91
:10195000FCE00C946D2365EE7EEF80E090E00E9449
:10196000FA2360E082E090E00E94DC2381E0809333
:10197000AD010E94780C60E074E184E090E00E9488
:10198000FA2360E086E090E00E94DC2360E087E0DC
:1019900090E00E94DC2340E050E0BA0188E090E053
:1019A0000E94EE2360E083E290E00E94DC2360E08E
:1019B0008CE090E00E94DC2360E08DE090E00E94EB
:1019C000DC2319821A821B821C821D821E821F82C6
:1019D000188648E050E067E170E0CE0101960E9471
:1019E000CC2340E050E0BA018FE190E00E94EE236A
:1019F00080E00E9487180E94B9180E949D0C2896CA
:101A0000E2E00C9489230E94A50C0895682F8EE0D3
:101A100090E00E94DC230895A6E0B0E0E2E1FDE062
:101A20000C946B230E94CA1B8C018091040290913C
:101A300005028017910779F019821A820E94CA1B49
:101A4000BC0149815A8180E090E00E945E031093BE
:101A50000502009304022696E4E00C9487230E947A
:101A6000D61B60930E0270930F0280931002909326
:101A7000110260930A0270930B0280930C02909300
:101A80000D020895089508950E94420D0895089545
:101A90000E94470D0E94440D089508950E944D0D27
:101AA000089508950E94510D0E944E0D089589E1F8
:101AB00090E10E9483110E94430D0E94480D0895F9
:101AC00081E0089581E008950E94600D08950895D1
:101AD000089508950E94670D0E94680D0E94690D87
:101AE00008950E94620C811102C00E94030D0E94A1
:101AF0006E0C809312020E947E0C909337028093AA
:101B000036020E94A6110E94730C0E944C0780911D
:101B1000AC010E94640708950E94C11B0E94C9186D
:101B20000E94D3100E94710D0E9438030E94520D32
:101B30000895A6E0B0E0EFE9FDE00C9464230E9474
:101B4000620D81110AC00E940C0D0E948F150E9427
:101B500045032696EBE00C9480230E94E91086E072
:101B6000A82E82E0B82E750110E0F70101917F01E7
:101B7000812F0E9435101F5F143009F442C00817EE
:101B8000A1F38091120281FD0E943B100E94640D1E
:101B9000C82E00E099249394802F0E943510182FAE
:101BA000F50191915F01891731F1D82ED926F12CD9
:101BB000EE24E3948D2D8E218115B1F0C114A1F096
:101BC000F9820A830E94CA1B9C838B839D8291E0C9
:101BD000812F8E21811101C090E049815A816B8152
:101BE0007C818D810E945E03F394EE0CF4E0FF1281
:101BF000E1CFF50112930F5F043071F60E942F0DB3
:101C0000A4CF0813BECF9FCF1F93CF93DF930E9423
:101C1000290FEC01811522E5920708F05DC08115BE
:101C200040E5940708F0DBC0803E910528F58D3C27
:101C3000910508F0ACC0883A910578F4853A910591
:101C400008F0A2C08130910509F441C00497813A9F
:101C50009105E8F1C0E0D0E03AC0885A91094B976D
:101C6000C8F7C85AD0E0CC0FDD1FCF5ADE4F09901D
:101C7000D881C02DD4642BC0811550E49507F8F4A9
:101C8000C11580E2D80708F0C0C0C83ED105F8F001
:101C9000CE019A9581159F41E8F68D2F0E94CA0FBB
:101CA000182FCE0199270E94290F212F30E0322FC3
:101CB0002227E901CC27DF71C82BD92B08C099272F
:101CC0000E94290FCC27DF70C82BD92BD06ACE01F8
:101CD000DF91CF911F910895803842E59407C8F5B0
:101CE000803652E5950708F05BC0C03482E5D8071E
:101CF000D0F4C03292E5D90708F04BC08C2F8695FE
:101D0000869520E2829FC0011124C37021E030E05B
:101D1000A90102C0440F551FCA95E2F7EA01C82B7A
:101D2000D92BDD68D4CF8C2F86958695877050E2AD
:101D3000859FC0011124C37021E030E0A90102C0D9
:101D4000440F551FCA95E2F7EA01C82BD92BDC686E
:101D5000BECF803C52E5950758F48F71C03AD2450A
:101D6000A0F590E0982F8827EC01C46FD06AAFCF20
:101D7000805C9245809708F06DCFDC2FCC27CC2774
:101D8000DF71C06FD06AA3CFA497D064A0CFD06515
:101D90009ECFCF71D0E0DC2FCC27C16FD06A97CF18
:101DA00086958695877020E2829FC0011124C370BA
:101DB00021E030E0A90102C0440F551FCA95E2F7A7
:101DC000EA01C82BD92BDA6882CF0E94CA0FC82F2C
:101DD000D0E0DC2FCC27CC27DF71D06278CF8F7199
:101DE0000E94CA0F53E0CC0FDD1F5A95E1F7CC27B4
:101DF000DF70282F30E084FF04C050E1859F900100
:101E00001124C22BD32BD06962CF8D2F8F710E94EA
:101E1000CA0F182FCE0199270E94290F212F30E0D9
:101E2000322F222722273F71282B392BE901D5CFCA
:101E3000462F672F942F972B943018F40E94691225
:101E4000089580E090E008950E94180F0E94040E0B
:101E500008959C01803E910509F448C0D8F481336F
:101E6000910509F47DC048F48932910509F46DC0EB
:101E70008A9709F47CC0C90108958933910551F10D
:101E80008238910539F1C597B1F78091360285FF07
:101E9000F2CF29C0843E910509F447C048F4823E40
:101EA000910599F1833E9105A9F121EE30E0E3CF50
:101EB000863E910509F444C0873E9105E1F6809184
:101EC000360283FD61C09091370291FF2BC024EE52
:101ED00030E0D1CF809136028370811152C0809161
:101EE000370283FFC8CF29E230E0C5CF80913602A8
:101EF00080FD33C09091370290FFBDCF23EE30E0DC
:101F000084FFB9CF20E030E0B6CF8091360282FD69
:101F1000F5CFB1CF8091360282FD30C0909137026B
:101F200090FD2FC084FFA7CFEDCF8091370281FFB6
:101F3000A2CF8091360227EE30E084FDE3CF9BCF25
:101F40008091360283FDF7CF96CF8091360285FDD2
:101F50001EC08091370283FF8ECF29E330E08BCF04
:101F60008091360286FF87CF2AE230E084CF8091CD
:101F7000360286FF80CF21E330E07DCF22EE30E0D5
:101F80007ACF20EE30E077CF26EE30E074CF25E335
:101F900030E071CF9091360292FF10C041E0282FBF
:101FA0002471243009F040E031E0282F28712830D6
:101FB00009F030E0431711F02CE0822793FF10C0A6
:101FC00041E0282F2471243109F040E031E0282F2E
:101FD0002871283109F030E0431711F02CE08227F6
:101FE0003091370230FF10C051E0282F217121308D
:101FF00009F050E041E0282F2871283009F040E036
:10200000541711F029E0822731FF10C041E0282F3A
:102010002171213109F040E031E0282F2871283169
:1020200009F030E0431711F029E0822794FD877E04
:10203000089580E00895CF939C01FB01805E924556
:10204000C1E0809738F4C581C11104C0822F8F711F
:102050000E9471028C2FCF91089508950E942D1037
:10206000089508950E9431100895E82FF0E0E45C8F
:10207000FD4F80810895089580EA8A95F1F70895CB
:1020800000C008950E943C100895F894E82FE2954E
:10209000EF70F0E041A18F7021E030E0B90102C0A3
:1020A000660F771F8A95E2F7CB01962F90959423C0
:1020B00091A392A1892B82A37894089586E30E942C
:1020C000451082E30E94451082E90E94451083E991
:1020D0000E94451086EC0E94451087E90E94451039
:1020E00083E30E94451081E30E9445100895A0E01B
:1020F000B0E0EDE7F0E10C946723EC01D62E062F5B
:1021000010E0C80185579E4F7C01FC0180818F3F04
:1021100009F444C0F894E82FE295EF70F0E091A143
:102120008F7021E030E001C0220F8A95EAF7892FF5
:10213000822B81A382A12095282322A378940E9438
:102140004010A7E8B1E091E0C12C8D918F3F79F06C
:10215000E82FE295EF70E05EF0E0208130E08F70D4
:1021600002C0359527958A95E2F7892F20FD80E0FA
:10217000C82A990FF1E0AB38BF0739F7F701808122
:102180008F3F11F00E94451061E0C11001C060E076
:102190008D2D0E944210C00FD11FC882CDB7DEB76F
:1021A000E8E00C9483230E945E1084E0ECE3F2E00C
:1021B000DF01982F1D929A95E9F7E8E3F2E0DF013D
:1021C0001D928A95E9F784E00E9429110E942E1041
:1021D0000895A4E0B0E0EFEEF0E10C946A23FE0174
:1021E000319684E0DF011D928A95E9F710E0FE2E1A
:1021F0000F2F612F8F2D902F0E9477101F5F1430AB
:10220000C1F744E050E06F2D702F88E392E00E9408
:10221000A82321E0892B81F420E044E06CE372E004
:1022200088E392E00E942A11182F0E943210812F19
:102230002496E5E00C94862389819A81AB81BC8148
:102240008093380290933902A0933A02B0933B02F4
:10225000E4CF0895A0E0B0E0E0E3F1E10C9467235F
:10226000D82EE92EF62ED72F042FC22F211579F064
:1022700081E0809315020E94CA1B90931402809300
:10228000130280E0CDB7DEB7E8E00C948323C09062
:102290001502C114B1F380911302909114020E94AF
:1022A000591B059770F310E0A8016D2D7E2D8F2D21
:1022B0009D2F0E94A823892B41F0A8016D2D7E2D12
:1022C0008F2D9D2F0E94B523CC2D109215028C2F9F
:1022D000D9CF0E94990D08950E94631B0E94AA1DE8
:1022E0000E94570D0E94C41D0E948C0D0E94D11D9A
:1022F0000E94D61D0E9469110E94F01D0E94771C49
:102300000E946A0DF5CF90939F0180939E010895DE
:102310000E945B0C089580E00E9435108170089542
:102320000E94E9102FEF86E791E021508040904015
:10233000E1F700C000000E94E9100E948B11811596
:1023400021F00E9488110E94061C08950E9490119D
:1023500008950F931F93CF93DF938C01FC01C081ED
:10236000D181CE010E94BE232196F801D183C08382
:10237000DF91CF911F910F91089584E0089528E097
:10238000629FB0011124640F711D640F711D20E262
:10239000829FC0011124860F971F889608950F937E
:1023A0001F93CF93DF93962F942B982B9430A8F400
:1023B0000E94BF118C010E94BE23C82FD0E0DC2FE9
:1023C000CC27C80101960E94BE239E01282BC9017B
:1023D000DF91CF911F910F91089580E090E0F8CFA9
:1023E0000F931F93CF93DF93122F032F962F942BCE
:1023F000982B943058F40E94BF11EC01602F0E947A
:10240000DC23612FCE0101960E94DC23DF91CF9166
:102410001F910F9108951F93CF93DF93D0E0C0E0F9
:1024200011C0412F6C2F8D2F0E94CC019C01412F98
:102430006C2F8D2F0E94F0111F5F143091F7CF5F2A
:10244000C43011F010E0EDCFDF5FD43041F7DF9101
:10245000CF911F910895EF92FF920F931F93CF9307
:10246000DF938C01EA017A01E60EF71ECE15DF0537
:1024700029F4CDB7DEB7E6E00C94852380E0003880
:10248000110520F4C80188960E94BE2389930F5F2E
:102490001F4FECCFEF92FF920F931F93CF93DF93D9
:1024A0008C01EA017A01E60EF71ECE15DF0529F44C
:1024B000CDB7DEB7E6E00C9485230038110528F48B
:1024C0006881C80188960E94DC2321960F5F1F4F08
:1024D000ECCF962F942B982B943018F40E94CF11A8
:1024E000089580E090E0089580E1089588E593E004
:1024F0000895EF92FF920F931F93CF93DF938C0178
:10250000EA017A01E60EF71ECE15DF0529F4CDB7F4
:10251000DEB7E6E00C948523083583E0180748F41D
:10252000C80188559F4F0E94BE2389930F5F1F4F9C
:10253000EBCF80E0FACFEF92FF920F931F93CF93F0
:10254000DF938C01EA017A01E60EF71ECE15DF0556
:1025500029F4CDB7DEB7E6E00C948523083583E097
:10256000180730F46881C80188559F4F0E94DC230A
:1025700021960F5F1F4FEACFCF93DF93C8EAD0E0D9
:1025800060E0CE010E94DC232196C11584E0D807CB
:10259000B9F7DF91CF910895A2E0B0E0E2EDF2E16A
:1025A0000C946A23F82E80E1F816A0F48FEF93E0E4
:1025B0000E94BE2381110EC008EA10E0F1100EC087
:1025C0001A83098340E0BE016F5F7F4F89EA91E182
:1025D0000E9414172296E5E00C948623011584E0EE
:1025E0001807C1F3C8010E94BE230F5F1F4F81115E
:1025F000F5CFFA94E3CFCF93DF93EB0186319C477D
:1026000019F50E94640B9D819115A1F08A7A91E0E1
:10261000811101C090E090931602811549F085E385
:102620000E948B1A0E94F70B80E0DF91CF910895F2
:1026300089E2F6CF80911602811521F085E30E9490
:10264000931AF0CF89E2FBCF81E0EFCFCF93DF93F6
:10265000EC01FB018581811509F4CFC09E01305743
:102660002332310508F0AFC00E947E0C90933702F0
:1026700080933602FE01E150F047E232F10520F48A
:10268000E25EFB4D0C945023809136028160809372
:10269000360290C0809137028860809337028AC0EA
:1026A000809136028260F3CF809136028460EFCF52
:1026B000809136028860EBCF809137028160EDCF48
:1026C000809137028260E9CF809136028061DFCF4E
:1026D000809136028062DBCF809136028064D7CF52
:1026E0000E94F806809136028068D1CF8091360230
:1026F0008C60CDCF809137028360CFCF809136023E
:102700008E7FC5CF80913702877FC7CF80913602F9
:102710008D7FBDCF809136028B7FB9CF80913602FD
:10272000877FB5CF809137028E7FB7CF80913702F8
:102730008D7FB3CF809136028F7EA9CF80913602F4
:102740008F7DA5CF809136028F7BA1CF0E94F806A6
:10275000809136028F779BCF80913602837F97CF0F
:10276000809137028C7F99CF80913602992782FF22
:10277000939590FB82F990FB83F989CF8091370282
:10278000982F909590FB80F990FB81F986CF9091DE
:102790003602892F8F7B96FF806479CF0E94F806DE
:1027A00090913602892F97FB87F9805870CF81E08E
:1027B0000E94060D80913602909137020E94830C90
:1027C0000E94F80680E0DF91CF91089580E0F0CF7D
:1027D00090913602892F8F7E94FF806158CF90911F
:1027E0003602892F8E7F90FF816051CF9091370202
:1027F000892F877F93FF886050CF81E0E4CF282F17
:1028000035EB2303C001112497FF04C080589109C0
:10281000892F089580589F4FFBCF80911D0280FF24
:1028200012C06091070189E1689FB001112475957C
:1028300067957595679560387105A8F561157105FF
:10284000A1F1862F089581FF09C06091070189E1F8
:10285000689FB001112475956795EDCF60910701D0
:1028600082FD0AC080911C028115D1F09091060171
:1028700060910701891728F089E1689FB001112450
:10288000DACF689FB001112489E1869FA001879F5C
:10289000500D1124692F70E0CA010E943C23CBCF58
:1028A00069E170E0CECF8FE7089581E008958091CF
:1028B0001D0280FF0CC06091030170E07595679563
:1028C000759567956115710549F1862F089581FF0A
:1028D00006C06091030170E075956795F3CF609134
:1028E000030182FD0BC090911B029115A1F0609134
:1028F000020180910301961738F0682F70E060386C
:10290000710500F38FE70895899FC001112470E0DD
:102910000E943C23F4CF61E070E0D7CF81E00895BE
:10292000E3E3E80FE331E0F5F0E0E05CFB4D0C940D
:1029300050230E940D1481958093210208950E94D6
:102940000D14FACF0E940D148195809320020895F2
:102950000E940D14FACF0E9457148093220208950A
:102960000E9457148195F9CF0E9457148195809346
:10297000230208950E945714FACF815D990B21E03C
:1029800030E001C0220F8A95EAF780911F02822B66
:1029900080931F02089580911D02816080931D0223
:1029A000089580911D028260F9CF80911D0284609C
:1029B000F5CF409120028D3C59F48091210287FF90
:1029C0000DC010922102411559F410921C0208C04A
:1029D0008E3C81F48091210218169CF3411581F000
:1029E0008091220290912302892B811159C010926B
:1029F0001B0208958F3C41F447FFF0CF1092200254
:102A0000809121028115E0CF803D19F41416B4F3B2
:102A1000E5CF90912202893D29F41916FCF6109217
:102A20002202DCCF8A3D19F497FFD8CFF8CF9091DE
:102A300023028B3D29F497FFD1CF10922302CECFF2
:102A40008C3D19F41916CCF3C9CF9FE2980F98303A
:102A500090F4815D990B21E030E0B90102C0660F6E
:102A6000771F8A95E2F7CB01809590911F02892309
:102A700080931F02B3CF8D3D31F480911D028E7F74
:102A800080931D02ABCF8E3D21F480911D028D7F7E
:102A9000F7CF8F3D09F0A2CF80911D028B7FF0CF41
:102AA00008950E94CA1B2091200230912102232BFD
:102AB000211521F08093190290931A02209122028D
:102AC00030912302232B211521F08093170290933C
:102AD00018028EE192E00E94E019089586E0EEE18E
:102AE000F2E0DF011D928A95E9F710921C02109224
:102AF0001B0210921D020895FC01828181110DC0FC
:102B0000838181110AC08481811107C081E0958190
:102B1000911101C080E08170089581E0FCCFA6E0B2
:102B2000B0E0E5E9F5E10C94672386E0EEE1F2E040
:102B30009E012F5F3F4FD90101900D928A95E1F7D9
:102B4000109220021092210210922202109223026F
:102B50008B819C81892B7901811589F080911902E3
:102B600090911A020E94591B6C0180911C028115E0
:102B7000B9F1909108019C151D0408F43EC08D81A7
:102B80009E81892B811591F08091170290911802F6
:102B90000E94591B8C0180911B02811509F45FC0B2
:102BA000909104019017110608F467C0B7018EE1F7
:102BB00092E00E94A61A811105C08EE192E00E9467
:102BC0007C1581110E94511586E0F701AEE1B2E05B
:102BD00001900D928A95E1F72696E8E00C94832304
:102BE000209109019AE0299F900111242C153D059F
:102BF00030F68F5F80931C0202C08F3FD1F7DB80DD
:102C0000D11459F00E940D1491E01D140CF09FEFA7
:102C1000899F802D112480932002DC80D11459F0EB
:102C20000E940D1491E01D140CF09FEF899F802DE0
:102C300011248093210280912002811509F49FCFF5
:102C4000D0902102D11409F49ACF0E94FF138093EF
:102C500020028D2D0E94FF138093210290CF20919E
:102C600005019AE0299F900111242017310708F0EF
:102C70009DCF8F5F80931B0202C08F3FD1F71D81D4
:102C8000111559F00E94571491E011160CF09FEFA6
:102C9000899F802D1124809322021E81111559F0E5
:102CA0000E94571491E011160CF09FEF899F802D20
:102CB00011248093230280912202811509F476CF9A
:102CC00010912302111509F471CF0E94FF13809314
:102CD0002202812F0E94FF138093230267CFA0E07E
:102CE000B0E0E5E7F6E10C946623E82FF0E0E45D60
:102CF000FE4FB490282F26952695269530E0F901B1
:102D0000E453FE4F0491877010E0082E02C0159521
:102D100007950A94E2F701701127F901E454FE4F78
:102D2000E490F12C082E02C0F594E7940A94E2F79F
:102D3000E0FAEE24FF24E0F8F901E455FE4FC491D7
:102D4000D0E002C0D595C7958A95E2F7C170DD271E
:102D5000C62ED12C0115110549F5E114F10431F00D
:102D600086EE0E94A103C601009771F5B6018B2D76
:102D70000E948804C601009779F5E114F104A1F5D9
:102D80000115110531F081EE0E942E04C601009755
:102D9000C9F5CD2B31F08CE20E94A204C114D104FC
:102DA000C9F5CDB7DEB7E9E00C94822381EE0E942D
:102DB000A103C601009789F2EFE9FFE03197F1F72F
:102DC00000C000000197F6CFEFE9FFE03197F1F77F
:102DD00000C000000197C8CFEFE9FFE03197F1F79D
:102DE00000C000000197C7CF86EE0E942E04C601E6
:102DF000009731F2EFE9FFE03197F1F700C00000F2
:102E00000197F6CFEFE9FFE03197F1F700C000003E
:102E10000197BDCF8FE99FE00197F1F700C0000057
:102E200091E0C91AD108BACFA0E0B0E0EAE1F7E139
:102E30000C9466237C01D62F172F042F8D2F912FF2
:102E4000F70109958115B9F0813009F060C08D2F27
:102E5000912FF7010995C82F813091F48D2F912F73
:102E6000F70109950E94A204802F90E0009709F0D5
:102E700046C0C111E3CFCDB7DEB7E9E00C948223A1
:102E8000823039F48D2F912FF70109950E94A1030B
:102E9000EBCF833039F48D2F912FF70109950E94E4
:102EA0002E04E2CF843001F78D2F912FF701099581
:102EB000C82FC12CD12C8AE0B82E2C2F2053330BD5
:102EC000C9012A30310568F0C114D10469F28FE9D3
:102ED0009FE00197F1F700C0000091E0C91AD10806
:102EE000F3CFBC9C9001BD9C300D11246C01C20E2F
:102EF000D31E8D2F912FF7010995C82FDECFEFE953
:102F0000FFE03197F1F700C000000197AFCF602FCD
:102F10000E946F1693CF0F931F93CF93DF93C42F0D
:102F2000D22FFC0185818115C9F0409326020E94B1
:102F3000CA1B909325028093240280E28C0F883074
:102F400040F4C77081E001C0880FCA95EAF70E947B
:102F5000AB04DF91CF911F910F910895109126023C
:102F6000141333C080912402909125020E94591BB2
:102F7000883C910550F5C0E2CD0F1D17C1F080E2ED
:102F8000810F883040F4177081E001C0880F1A95D6
:102F9000EAF70E94B204C83050F491E08D2F877098
:102FA00001C0990F8A95EAF7892F0E94AB04802F00
:102FB0000E94A204C83068F6D77081E001C0880F73
:102FC000DA95EAF70E94B204C4CF80E28C0F883011
:102FD00008F0BFCFC77081E001C0880FCA95EAF73B
:102FE000F1CF0F93DB01FC01E851FC47E730F1051D
:102FF00098F5ED5AFB4D0C94502306E221EE41EE7C
:103000006AE17CE7CD010E948B1780E00F91089563
:1030100007E225EE45EE6BE17CE7F4CF06E221EE18
:1030200040EE68E17CE7EECF07E225EE44EE69E191
:103030007CE7E8CF06E221EE42EE6CE17CE7E2CFEE
:1030400007E225EE46EE6DE17CE7DCCF08E221E009
:1030500045EE6EE17CE7D6CF15968C9181111092EA
:10306000260281E0D3CFCF93DF939C01FB0127376A
:103070008CE7380739F028373C47F1F081E0DF91E1
:10308000CF9108958581811591F00E9465180E9465
:1030900079070E946B18D82F0E946818C82F0E94C9
:1030A00065184D2F6C2F0E94A90880E0E8CF0E9480
:1030B00065180E948507EDCF8581811519F00E9462
:1030C0006818E5CF0E946818F4CF80910C0108952C
:1030D00080910B01089580910A01089584E290E0A7
:1030E0000E94BE23853289F485E290E00E94BE23CF
:1030F000833059F486E290E00E94BE2391E085304F
:1031000009F090E0892F8170089580E0FCCFCF9383
:10311000C82F65E2811101C06FEF84E290E00E9448
:10312000DC2363E0C11101C06FEF85E290E00E94F3
:10313000DC2365E0C11101C06FEF86E290E00E94E0
:10314000DC23CF910895089587E290E00E94BE238A
:10315000682F70E080E090E008950895CF93C62F27
:103160000E94AD186C2F87E290E00E94DC23CF9183
:10317000089580E00E94871860E070E0CB010E9413
:10318000AE180E940B120E94BC1281E00E948718A8
:1031900008950E94A3180E94A4180E94AD180E94CE
:1031A0006E18811102C00E94B918089508959C01FB
:1031B000FB018581811551F0A90157574038510510
:1031C00030F4822F0E94CC1280E0089581E00895AF
:1031D0002FEFFC01208308950E94E818089580E0F5
:1031E0000895CF92DF92FF920F931F93CF93DF93B7
:1031F000EC01F62E0E94EF18811110C0E881E15019
:10320000E331E0F4F0E0E65AFB4D0C9450231982D0
:103210008CE08A836F2DCE010E946D1CDF91CF91CF
:103220001F910F91FF90DF90CF9008958981833097
:10323000F9F038F4813061F0823099F08FEF8883B3
:10324000E9CF8430D9F71A821B821C821D82E2CF1B
:103250000E94D61B0E9456236A837B838C839D83A6
:10326000D9CF0E94A4181A821B821C826D83D2CFF0
:103270000A8110E06E0183E0C80ED11C04301105F4
:103280004CF6802F0E943510F60181936F010F5F7D
:103290001F4FF4CF8981823031F0853079F68A81F1
:1032A0000E94D618B7CF6A817B818C819D810E9454
:1032B00056230E94AE18AECF4B816A8189810E944D
:1032C000CF119827892798279D838C83A3CF2C81A2
:1032D0003D813227232732274B816A8189810E94D1
:1032E000F01198CF0E940B1295CF6F2DCE010E9446
:1032F000EC1890CF0E94741289838CCF0E947612B2
:103300009827892798279A83898384CF6B8170E0D7
:1033100089819A81AE014C5F5F4F98278927982752
:103320000E94791277CF6B8170E089819A81AE011A
:103330004C5F5F4F9827892798270E949B126ACF7E
:103340000E94BC1267CF0E94BD11D6CF6B8170E086
:1033500089819A81AE014C5F5F4F98278927982712
:103360000E942B1257CF6B8170E089819A81AE0148
:103370004C5F5F4F9827892798270E944A124ACFAF
:1033800090932C0280932B020895E0912B02F091F0
:103390002C02309729F00190F081E02D09950895D5
:1033A00080E008950E94C5190895E0912B02F091E4
:1033B0002C02309721F00280F381E02D09950895C9
:1033C000DC01E0912B02F0912C02309739F082E081
:1033D0008C930680F781E02DCD0109950895A3E037
:1033E000B0E0E5EFF9E10C946D239C018091290296
:1033F00090912A0282179307A1F030932A0220931A
:103400002902E0912B02F0912C02309751F083E0D9
:1034100089833B832A830084F185E02DCE010196C8
:1034200009952396E2E00C948923A3E0B0E0EBE158
:10343000FAE10C946D239C0180912702909128025F
:1034400082179307A1F03093280220932702E0917E
:103450002B02F0912C02309751F084E089833B835A
:103460002A830084F185E02DCE01019609952396EB
:10347000E2E00C94892340910001509101019A01EE
:103480002E5F3F4F485F5F4F80E0F90190812F5FD3
:103490003F4F91118F5F42175307B9F70895811578
:1034A00071F02091000130910101F9013296285FFD
:1034B0003F4F9191981729F0E217F307D1F780E079
:1034C000089581E008959C01FC0132968FEF90E011
:1034D0004191461751F08F3F19F4411101C0892FD6
:1034E0009F5F9630A9F78F3F09F40895280F311D8B
:1034F00087FD3A95F901628308959C01FC0132969B
:10350000285F3F4F8191861302C0DF011E92E217B0
:10351000F307C1F70895682F809100019091010190
:103520000E94631A0895682F809100019091010113
:103530000E947D1A0895E0910001F09101013296F8
:1035400086E0DF011D928A95E9F70895DC01FB0111
:1035500011969C9111978181981322C012968C919B
:103560001297811519F0928189131AC013968C91C4
:103570001397811519F09381891312C015968C91B8
:103580001597811519F0958189130AC014969C919D
:10359000911521F081E02481291303C080E001C04E
:1035A00081E08170089508950E94D31A08958F5F75
:1035B0008093100160910D0170910E0180910F01B7
:1035C000909110010E94D41A089583E08093100115
:1035D00060910D0170910E0180910F019091100189
:1035E0000E94D41A08950E94D71A089581E080930A
:1035F000100160910D0170910E0180910F01909169
:1036000010010E94D41A08950E94F61A089591E0BC
:10361000811101C090E090930F0160910D017091B4
:103620000E0180910F01909110010E94D41A08950B
:1036300080910F01089580930E0160910D017091AA
:103640000E0180910F01909110010E94D41A0895EB
:1036500080910E01089580930D0160910D0170918C
:103660000E0180910F01909110010E94D41A0895CB
:1036700080910D010895089508950E943C1B0895BE
:10368000089508950E943B1B0895CF930E94401B0C
:103690000E94E9100E94411BC0E08C2F0E9435104F
:1036A000811105C0CF5FC430C1F7CF91089581E08B
:1036B000FCCFCF93DF93EC010E94CA1B8C1B9D0BA8
:1036C000DF91CF91089585B7806885BF85B7806801
:1036D00085BF08951F921FB61F9211248F939F9349
:1036E000AF93BF9380912D02811113C0809140024E
:1036F00090914102A0914202B09143024196A11DD6
:10370000B11D8093400290934102A0934202B09376
:103710004302BF91AF919F918F911F901FBE1F9049
:10372000189580914802843031F10E94180310925C
:103730002D0288E190E020E40FB6F894A8958093DC
:1037400060000FBE2093600083B7817F846083BFD9
:1037500083B7816083BF7894889583B78E7F83BF5A
:103760000FB6F894A89580916000886180936000FE
:10377000109260000FBE08950E94F8060E941F0379
:10378000089582E084BD93E095BD9AEF97BD809344
:103790006E0008952FB7F8948091400290914102F5
:1037A000A0914202B09143022FBF08952FB7F89421
:1037B00060914002709141028091420290914302D7
:1037C0002FBF089578941F921FB61F9211248F93D4
:1037D0009F93AF93BF938091400290914102A0913B
:1037E0004202B09143020196A11DB11D8093400297
:1037F00090934102A0934202B0934302BF91AF91D4
:103800009F918F911F901FBE1F90189587E797E794
:10381000909301088093000888E19AE00FB6F8942D
:10382000A895809360000FBE90936000FFCF88E161
:103830009AE00FB6F894A895809360000FBE90931D
:103840006000FFCF0895282FCB01BA0130914802C4
:103850003430D9F42F702093E9002FEF3091E80035
:1038600035FD06C035ED3A95F1F700002A95B1F720
:103870002091E80025FF09C040E050E00E94661E4C
:103880008091E8008E778093E8000895BC0143E0C2
:1038900050E084E00E94231C0895BC0146E050E003
:1038A00084E00E94231C0895CF93DF93D82FC92F63
:1038B0000E94181B48E050E06D2F7C2F81E00E9491
:1038C000231C88E0ED2FFC2FAEE2B2E001900D92B8
:1038D0008A95E1F7DF91CF910895792F603231F425
:1038E00040E250E0682F82E00E94231C0895A0E28D
:1038F000B0E0EDE7FCE10C946D2380914802843048
:1039000009F583E08093E9008091E80082FF1AC006
:103910008091E80090E085FF09C040E050E060E25F
:1039200070E0CE0101960E94B61E91E08091E80001
:103930008B778093E800911529F060E2CE01019623
:103940000E94F118A096E2E00C948923809147022E
:10395000811109C00E943F200E949C208091E200BA
:1039600084608093E20008951092470208950E94B7
:10397000F61A81E00E94071B08956091440281E0DD
:10398000611101C080E00E94E51A089590914802FB
:1039900081E0943009F080E0609144020E94F31AC3
:1039A000089542E061EC81E00E94BB1F42E261ECBD
:1039B00084E00E94BB1F42E261EC82E00E94BB1FD8
:1039C00042E260EC83E00E94BB1F9091480281E0DC
:1039D000943009F080E0609144020E94D71A089563
:1039E00080914A02893089F148F4823009F4A1C0FB
:1039F000833009F45BC0813041F008958A3009F4C6
:103A000088C08B3009F46DC0089580914902813AD5
:103A100009F04BC08091E800877F8093E800809197
:103A20004D0290914E02892B61F060E080E090E0C1
:103A300070E00E94061F8091E8008B778093E80079
:103A4000089568E08EE292E0F3CF809149028132DE
:103A500061F580914D0290914E028D7F892B29F561
:103A60008091E800877F8093E8008091E80082FFE2
:103A700018C09091F3008091F200029731F4809188
:103A8000F100813011F0863021F48091F1000E9424
:103A90001B1B8091E8008B778093E8000E94EF1F4A
:103AA0000895809148028111E0CF089580914902E4
:103AB000813AD9F780914D0290914E02892BA9F756
:103AC0008091E800877F8093E8008091E80080FF84
:103AD000FCCF0E94181B8093F1008091E8008E7744
:103AE000DBCF80914902813201F780914D029091A4
:103AF0004E02892BD1F68091E800877F8093E80001
:103B00000E94EF1F80914B020E94071B0E94F80643
:103B1000089580914902813241F68091E800877FC3
:103B20008093E8000E94EF1F80914C020E942B1BA3
:103B3000089580914902813A09F0B7CF8091E80059
:103B4000877F8093E8008091E80080FFFCCF0E948F
:103B5000381BC1CF84B7877F84BF0FB6F894A89570
:103B600080916000886180936000109260000FBEB9
:103B700080E890E00FB6F894809361009093610024
:103B80000FBE0E94041B08950E943F200E949C20AB
:103B9000E2EEF0E080818460808378940E942223AA
:103BA000089581E191E00E94C01908958091480232
:103BB000853031F480914802853019F00E94BC1B99
:103BC00008950E94911B0E94451B811599F38091D5
:103BD0004602811579F30E94501E0E94F806EACF32
:103BE00008959A0140914F02509150020E94F91D90
:103BF0000895FC01AB01D901892F992783309105E4
:103C0000C1F068F48130910509F445C0029761F470
:103C10008BE590E02CE032E02D933C9308958132C7
:103C20009105E1F0829739F180E090E020E030E00A
:103C3000F3CFCF019927E13059F08230910559F047
:103C4000E8E0F2E0892B81F7849190E09F01E4CFD6
:103C5000E4EFF1E0F9CFECEDF1E0F6CF6330710580
:103C600018F7FB01EE0FFF1FE856FE4F2081318150
:103C700089E090E0D1CF63307105B0F6FB01EE0F23
:103C8000FF1FEE56FE4F2081318141575E4FFA01F2
:103C9000808190E0C1CF82E190E027E632E0BCCFA6
:103CA00080E189BD82E189BD09B400FEFDCF80912C
:103CB000D8008F7D8093D8008091E000826080934F
:103CC000E0008091E00081FDFCCF0895AF92BF92AB
:103CD000CF92DF92EF92FF920F931F93CF936C01DD
:103CE0008B017A010E940E20C82F811123C0E1149C
:103CF000F10439F0F70180819181081B190BC80E7E
:103D0000D91EA12CB12C01151105A1F08091E8005C
:103D100085FD21C08091E8008E778093E800E11452
:103D2000F10499F0F701808191818A0D9B1D9183A7
:103D30008083C5E08C2FCF911F910F91FF90EF9062
:103D4000DF90CF90BF90AF9008950E940E20811514
:103D5000E9F2C82FEFCFF60181916F018093F10056
:103D600001501109FFEFAF1ABF0ACDCFAF92BF923A
:103D7000CF92DF92EF92FF920F931F93CF936C013C
:103D80008B017A010E940E20C82F811123C0E114FB
:103D9000F10439F0F70180819181081B190BC80EDD
:103DA000D91EA12CB12C01151105A1F08091E800BC
:103DB00085FD21C08091E8008B778093E800E114B5
:103DC000F10499F0F701808191818A0D9B1D918307
:103DD0008083C5E08C2FCF911F910F91FF90EF90C2
:103DE000DF90CF90BF90AF9008950E940E20811574
:103DF000E9F2C82FEFCF8091F100F60181936F01B6
:103E000001501109FFEFAF1ABF0ACDCFFC019B0192
:103E100080914F02909150028617970718F0672BF8
:103E200061F0C90140E0009771F441110CC080912C
:103E3000E80082FF35C080E008958091E8008E7729
:103E40008093E800EECF209148022115A9F125309A
:103E5000A9F12091E80023FD2DC02091E80022FD6A
:103E6000E6CF2091E80020FFDECF3091F3002091D3
:103E7000F200009719F02830310558F041E0283061
:103E8000310509F040E02091E8002E772093E8000A
:103E9000CACF41914093F10001972F5F3F4FE9CF87
:103EA00080914802811541F0853041F08091E80011
:103EB00083FFBDCF81E0089582E0089583E00895F7
:103EC000FC019B0180914F02909150028617970749
:103ED00018F0672B61F0C90140E0009771F44111BF
:103EE0000CC08091E80082FF36C080E00895809188
:103EF000E8008E778093E800EECF209148022115EC
:103F0000B1F12530B1F12091E80023FD2EC02091C0
:103F1000E80022FDE6CF2091E80020FFDECF3091BF
:103F2000F3002091F200009719F02830310558F085
:103F300041E02830310509F040E02091E8002E777B
:103F40002093E800CACF44914093F1003196019745
:103F50002F5F3F4FE8CF80914802811541F08530B7
:103F600041F08091E80083FFBCCF81E0089582E0BA
:103F7000089583E00895982F973028F08F708093EC
:103F8000E90081E008959093E900242F762F50E016
:103F9000981731F07091EC002091ED005091F000F5
:103FA00021FD02C09F5FE8CF3091EB003E7F309350
:103FB000EB003091ED003D7F3093ED003091EB0050
:103FC00031603093EB007093EC002093ED00509340
:103FD000F0002091EE0027FDE5CF80E0089580916C
:103FE000490287FF13C08091E80082FF06C08091DC
:103FF000E8008B778093E800089580914802811152
:10400000F2CF0895809148028115D9F38091E8009C
:1040100080FFF8CF8091E8008E77ECCF2091E4000C
:104020003091E50095E6A9012091EC00822F817086
:1040300020FF06C08091E80080FF06C080E0089560
:104040002091E80022FD1AC080914802811589F074
:10405000853089F08091EB0085FD0FC02091E40050
:104060003091E50042175307F9F29A95E1F684E0A2
:10407000089582E0089583E0089581E008950E9404
:10408000AE200E94B620E0EEF0E080818160808367
:10409000E8EDF0E080818F77808319BCA7EDB0E078
:1040A0008C918E7F8C9380818F7E808310924702CB
:1040B00008950F931F93CF93DF930E94AE200E9429
:1040C000B620C8EDD0E088818F77888388818068AA
:1040D000888388818F7D888319BC10924802109252
:1040E0004402109246021092450200EE10E0F801E0
:1040F00080818B7F808388818160888342E060E05B
:1041000080E00E94BB1FE1EEF0E080818E7F808323
:10411000E2EEF0E08081816080838081886080832E
:10412000F80180818E7F8083888180618883DF9120
:10413000CF911F910F910895E8EDF0E080818F7E7F
:104140008083E7EDF0E080818160808384E082BF3E
:1041500081E0809347020E9459200895E8EDF0E045
:1041600080818E7F80831092E20008951092DA00A1
:104170001092E10008951F920F920FB60F92112432
:104180002F933F934F935F936F937F938F939F935F
:10419000AF93BF93EF93FF938091E10082FF0BC039
:1041A0008091E20082FF07C08091E1008B7F8093C5
:1041B000E1000E9421238091DA0080FF19C08091E4
:1041C000D80080FF15C08091DA008E7F8093DA00DE
:1041D0008091D90080FF94C080E189BD82E189BDD2
:1041E00009B400FEFDCF81E0809348020E94A61C26
:1041F0008091E10080FF19C08091E20080FF15C02E
:104200008091E2008E7F8093E2008091E2008061E5
:104210008093E2008091D80080628093D80019BC1E
:1042200085E0809348020E94BD1C8091E10084FFDC
:1042300029C08091E20084FF25C080E189BD82E130
:1042400089BD09B400FEFDCF8091D8008F7D809399
:10425000D8008091E1008F7E8093E1008091E200A0
:104260008F7E8093E2008091E20081608093E20083
:1042700080914402811509F449C084E0809348028A
:104280000E94C61C8091E10083FF29C08091E2005A
:1042900083FF25C08091E100877F8093E10082E069
:1042A00080934802109244028091E1008E7F8093B7
:1042B000E1008091E2008E7F8093E2008091E20035
:1042C00080618093E20042E060E080E00E94BB1FDA
:1042D0008091F00088608093F0000E94B71CFF91ED
:1042E000EF91BF91AF919F918F917F916F915F916E
:1042F0004F913F912F910F900FBE0F901F901895E7
:1043000019BC109248020E94B41C72CF8091E30045
:1043100087FF02C083E0B2CF81E0B0CF1F920F923F
:104320000FB60F921124EF92FF920F931F932F93CA
:104330003F934F935F936F937F938F939F93AF932D
:10434000BF93CF93EF93FF9309EE10E0F8018081C4
:10435000C091EC008F70C795CC27C795C82B1082F1
:1043600080EFE82EF12CF7018081877F808378949D
:104370000E94D921F8011082F70180818860808332
:10438000CF70F801C083FF91EF91CF91BF91AF91B2
:104390009F918F917F916F915F914F913F912F915D
:1043A0001F910F91FF90EF900F900FBE0F901F90F5
:1043B0001895AAE2B0E0EFEDF1E20C946B2389E4EA
:1043C00092E0FC0101962091F100208322E08135EA
:1043D0009207B9F70E94F01C8091E80083FF38C073
:1043E0008091490290914A029A3090F5E92FF0E0CD
:1043F000E359FB4D0C945023803889F0823841F505
:1044000080914D028F70873018F58093E90080917C
:10441000EB0085FB882780F91092E90006C08091A7
:104420004602880F90914502892B9091E800977F72
:104430009093E8008093F1001092F1008091E800E1
:104440008E7723C0811116C080914B02813011F10B
:104450008091E80083FF0AC08091E800877F809305
:10446000E8008091EB0080628093EB00AA96E4E084
:104470000C948723823061F780914B02811589F07B
:104480001092E9008091E800877F8093E8000E9405
:10449000EF1FDECF81E0933009F080E08093460289
:1044A000EFCF80914D028F702FEF280F263080F6CE
:1044B0008093E9002091EB0020FFE2CF933031F4AC
:1044C0008091EB0080628093EB00DACF9091EB005B
:1044D00090619093EB0021E030E0A90102C0440F0D
:1044E000551F8A95E2F74093EA001092EA00809106
:1044F000EB008860E8CF8111ABCF10914B021F77A2
:104500008091E3008078812B8093E3008091E80024
:10451000877F8093E8000E94EF1F8091E80080FF72
:10452000FCCF8091E30080688093E30083E0111169
:1045300001C082E0809348028BCF8058823008F01F
:1045400087CF80914B0290914C028C3D53E09507B0
:1045500099F583E08A838AE289834FB7F894DE0174
:10456000139620E03EE051E2E32FF0E05093570035
:10457000849120FF03C082958F703F5F8F708A30D7
:10458000C8F0895C90E08D939D932F5F243161F793
:104590004FBF8091E800877F8093E8006AE270E077
:1045A000CE0101960E94061F8091E8008B778093D0
:1045B000E8004ECF805DE6CF60914D0270914E02D3
:1045C000AE014F5F5F4F0E94F11D8C01892B09F4F2
:1045D0003FCF8091E800877F8093E800B801898110
:1045E0009A810E94601FE0CF803809F031CF80911E
:1045F000E800877F8093E800809144028093F10077
:104600001DCF811125CF90914B02923008F020CF21
:104610008091E800877F8093E800909344020E9495
:10462000EF1F80914402811531F084E080934802AD
:104630000E94D11C0DCF8091E30087FDF6CF81E071
:10464000F5CF0895CF9380914802811599F080911C
:10465000E900C091EC008F70C795CC27C795C82B97
:104660001092E9008091E80083FD0E94D921CF706B
:10467000C093E900CF91089597FB072E16F400949C
:1046800007D077FD09D00E94942307FC05D03EF4A3
:10469000909581959F4F0895709561957F4F0895EE
:1046A000EE0FFF1F0590F491E02D099469279627DE
:1046B000692778278727782708952F923F924F926E
:1046C0005F926F927F928F929F92AF92BF92CF92A2
:1046D000DF92EF92FF920F931F93CF93DF93CDB7AB
:1046E000DEB7CA1BDB0B0FB6F894DEBF0FBECDBF23
:1046F00009942A88398848885F846E847D848C84F4
:104700009B84AA84B984C884DF80EE80FD800C81FC
:104710001B81AA81B981CE0FD11D0FB6F894DEBFDF
:104720000FBECDBFED010895AA1BBB1B51E107C011
:10473000AA1FBB1FA617B70710F0A61BB70B881F31
:10474000991F5A95A9F780959095BC01CD010895C0
:10475000FB01DC0104C08D910190801921F44150CE
:104760005040C8F7881B990B0895FB01DC0102C07B
:1047700001900D9241505040D8F70895F999FECF1D
:1047800092BD81BDF89A992780B50895A8E1B0E05F
:1047900042E050E00C940224DC01A40FB51F41500C
:1047A000504048F0CB01840F951F2E910E94DD23CD
:1047B00041505040D0F70895262FF999FECF92BD71
:1047C00081BDF89A019700B4021639F01FBA20BDD6
:1047D0000FB6F894FA9AF99A0FBE08950396272F08
:1047E0000E94DD230E94DC23252F0E94DD23242F3D
:1047F0000C94DD230196272F0E94DD230C94DC23EB
:10480000DC01CB01FC01F999FECF06C0F2BDE1BD90
:10481000F89A319600B40D9241505040B8F708957F
:10482000F894FFCFF704F7043B053B059F05BC0553
:1048300026052605C1053206430643067E13EF13FF
:104840008613501354138A1358138E139A13641338
:10485000E81368139E136C13A213C7137013A613E7
:10486000CE137613AC13B4135C1392136013961328
:104870007A13B013BE13D713E6134A138213F61339
:1048800099149F14A214A814BD14BD14BD14BD1412
:10489000BD14BD14BD14BD14AB14B014B414BA14BB
:1048A000CB14D114D5140E181418FD1708181A18A3
:1048B00020182618071916194A195C196719721950
:1048C0007519751975191E191E197A197E19861907
:1048D0009319A019A319A619B319FC212222282281
:0E48E000222228227B229D222822F42201235C
:1048EE00FA01280850011E0A1401030201000001FA
:1048FE0000281B541C221C4D1C461CE200E900EA39
:10490E0000B500B600B700CD008301CC008A01923D
:10491E000194012102230224022502260227022AE3
:10492E0002B300B4006F0070009F01CB019F02A084
:10493E0002E200E900EA00B500B600B700CD008340
:10494E0001CC008A01920194012102230224022546
:10495E0002260227022A02B300B4006F0070009FE5
:10496E0001CB019F02A002C6973331363292934497
:0E497E00227B160379029B021E0237025702AB
:00000001FF
